{
  "contractName": "Exchange",
  "abi": [
    {
      "constant": true,
      "inputs": [
        {
          "name": "symbolName",
          "type": "string"
        }
      ],
      "name": "getBuyOrderBook",
      "outputs": [
        {
          "name": "",
          "type": "uint256[]"
        },
        {
          "name": "",
          "type": "uint256[]"
        }
      ],
      "payable": false,
      "stateMutability": "view",
      "type": "function"
    },
    {
      "constant": true,
      "inputs": [],
      "name": "getEthBalanceInWei",
      "outputs": [
        {
          "name": "",
          "type": "uint256"
        }
      ],
      "payable": false,
      "stateMutability": "view",
      "type": "function"
    },
    {
      "constant": false,
      "inputs": [
        {
          "name": "symbolName",
          "type": "string"
        },
        {
          "name": "amount",
          "type": "uint256"
        }
      ],
      "name": "depositToken",
      "outputs": [],
      "payable": false,
      "stateMutability": "nonpayable",
      "type": "function"
    },
    {
      "constant": true,
      "inputs": [
        {
          "name": "symbolName",
          "type": "string"
        }
      ],
      "name": "getBalance",
      "outputs": [
        {
          "name": "",
          "type": "uint256"
        }
      ],
      "payable": false,
      "stateMutability": "view",
      "type": "function"
    },
    {
      "constant": false,
      "inputs": [
        {
          "name": "amountInWei",
          "type": "uint256"
        }
      ],
      "name": "withdrawEther",
      "outputs": [],
      "payable": false,
      "stateMutability": "nonpayable",
      "type": "function"
    },
    {
      "constant": false,
      "inputs": [
        {
          "name": "symbolName",
          "type": "string"
        },
        {
          "name": "priceInWei",
          "type": "uint256"
        },
        {
          "name": "amount",
          "type": "uint256"
        }
      ],
      "name": "buyToken",
      "outputs": [],
      "payable": false,
      "stateMutability": "nonpayable",
      "type": "function"
    },
    {
      "constant": true,
      "inputs": [
        {
          "name": "symbolName",
          "type": "string"
        }
      ],
      "name": "getSellOrderBook",
      "outputs": [
        {
          "name": "",
          "type": "uint256[]"
        },
        {
          "name": "",
          "type": "uint256[]"
        }
      ],
      "payable": false,
      "stateMutability": "view",
      "type": "function"
    },
    {
      "constant": false,
      "inputs": [
        {
          "name": "symbolName",
          "type": "string"
        },
        {
          "name": "priceInWei",
          "type": "uint256"
        },
        {
          "name": "amount",
          "type": "uint256"
        }
      ],
      "name": "sellToken",
      "outputs": [],
      "payable": false,
      "stateMutability": "nonpayable",
      "type": "function"
    },
    {
      "constant": true,
      "inputs": [
        {
          "name": "symbolName",
          "type": "string"
        }
      ],
      "name": "hasToken",
      "outputs": [
        {
          "name": "",
          "type": "bool"
        }
      ],
      "payable": false,
      "stateMutability": "view",
      "type": "function"
    },
    {
      "constant": false,
      "inputs": [
        {
          "name": "symbolName",
          "type": "string"
        }
      ],
      "name": "getSymbolIndexOrThrow",
      "outputs": [
        {
          "name": "",
          "type": "uint8"
        }
      ],
      "payable": false,
      "stateMutability": "nonpayable",
      "type": "function"
    },
    {
      "constant": false,
      "inputs": [],
      "name": "depositEther",
      "outputs": [],
      "payable": true,
      "stateMutability": "payable",
      "type": "function"
    },
    {
      "constant": false,
      "inputs": [
        {
          "name": "symbolName",
          "type": "string"
        },
        {
          "name": "erc20TokenAddress",
          "type": "address"
        }
      ],
      "name": "addToken",
      "outputs": [],
      "payable": false,
      "stateMutability": "nonpayable",
      "type": "function"
    },
    {
      "constant": false,
      "inputs": [
        {
          "name": "symbolName",
          "type": "string"
        },
        {
          "name": "amount",
          "type": "uint256"
        }
      ],
      "name": "withdrawToken",
      "outputs": [],
      "payable": false,
      "stateMutability": "nonpayable",
      "type": "function"
    },
    {
      "constant": false,
      "inputs": [
        {
          "name": "symbolName",
          "type": "string"
        },
        {
          "name": "isSellOrder",
          "type": "bool"
        },
        {
          "name": "priceInWei",
          "type": "uint256"
        },
        {
          "name": "offerKey",
          "type": "uint256"
        }
      ],
      "name": "cancelOrder",
      "outputs": [],
      "payable": false,
      "stateMutability": "nonpayable",
      "type": "function"
    },
    {
      "anonymous": false,
      "inputs": [
        {
          "indexed": true,
          "name": "_from",
          "type": "address"
        },
        {
          "indexed": true,
          "name": "_symbolIndex",
          "type": "uint256"
        },
        {
          "indexed": false,
          "name": "_amount",
          "type": "uint256"
        },
        {
          "indexed": false,
          "name": "_timestamp",
          "type": "uint256"
        }
      ],
      "name": "DepositForTokenReceived",
      "type": "event"
    },
    {
      "anonymous": false,
      "inputs": [
        {
          "indexed": true,
          "name": "_to",
          "type": "address"
        },
        {
          "indexed": true,
          "name": "_symbolIndex",
          "type": "uint256"
        },
        {
          "indexed": false,
          "name": "_amount",
          "type": "uint256"
        },
        {
          "indexed": false,
          "name": "_timestamp",
          "type": "uint256"
        }
      ],
      "name": "WithdrawalToken",
      "type": "event"
    },
    {
      "anonymous": false,
      "inputs": [
        {
          "indexed": true,
          "name": "_from",
          "type": "address"
        },
        {
          "indexed": false,
          "name": "_amount",
          "type": "uint256"
        },
        {
          "indexed": false,
          "name": "_timestamp",
          "type": "uint256"
        }
      ],
      "name": "DepositForEthReceived",
      "type": "event"
    },
    {
      "anonymous": false,
      "inputs": [
        {
          "indexed": true,
          "name": "_to",
          "type": "address"
        },
        {
          "indexed": false,
          "name": "_amount",
          "type": "uint256"
        },
        {
          "indexed": false,
          "name": "_timestamp",
          "type": "uint256"
        }
      ],
      "name": "WithdrawalEth",
      "type": "event"
    },
    {
      "anonymous": false,
      "inputs": [
        {
          "indexed": true,
          "name": "_symbolIndex",
          "type": "uint256"
        },
        {
          "indexed": true,
          "name": "_who",
          "type": "address"
        },
        {
          "indexed": false,
          "name": "_amountTokens",
          "type": "uint256"
        },
        {
          "indexed": false,
          "name": "_priceInWei",
          "type": "uint256"
        },
        {
          "indexed": false,
          "name": "_orderKey",
          "type": "uint256"
        }
      ],
      "name": "LimitSellOrderCreated",
      "type": "event"
    },
    {
      "anonymous": false,
      "inputs": [
        {
          "indexed": true,
          "name": "_symbolIndex",
          "type": "uint256"
        },
        {
          "indexed": false,
          "name": "_amount",
          "type": "uint256"
        },
        {
          "indexed": false,
          "name": "_priceInWei",
          "type": "uint256"
        },
        {
          "indexed": false,
          "name": "_orderKey",
          "type": "uint256"
        }
      ],
      "name": "SellOrderFulfilled",
      "type": "event"
    },
    {
      "anonymous": false,
      "inputs": [
        {
          "indexed": true,
          "name": "_symbolIndex",
          "type": "uint256"
        },
        {
          "indexed": false,
          "name": "_priceInWei",
          "type": "uint256"
        },
        {
          "indexed": false,
          "name": "_orderKey",
          "type": "uint256"
        }
      ],
      "name": "SellOrderCancelled",
      "type": "event"
    },
    {
      "anonymous": false,
      "inputs": [
        {
          "indexed": true,
          "name": "_symbolIndex",
          "type": "uint256"
        },
        {
          "indexed": true,
          "name": "_who",
          "type": "address"
        },
        {
          "indexed": false,
          "name": "_amountTokens",
          "type": "uint256"
        },
        {
          "indexed": false,
          "name": "_priceInWei",
          "type": "uint256"
        },
        {
          "indexed": false,
          "name": "_orderKey",
          "type": "uint256"
        }
      ],
      "name": "LimitBuyOrderCreated",
      "type": "event"
    },
    {
      "anonymous": false,
      "inputs": [
        {
          "indexed": true,
          "name": "_symbolIndex",
          "type": "uint256"
        },
        {
          "indexed": false,
          "name": "_amount",
          "type": "uint256"
        },
        {
          "indexed": false,
          "name": "_priceInWei",
          "type": "uint256"
        },
        {
          "indexed": false,
          "name": "_orderKey",
          "type": "uint256"
        }
      ],
      "name": "BuyOrderFulfilled",
      "type": "event"
    },
    {
      "anonymous": false,
      "inputs": [
        {
          "indexed": true,
          "name": "_symbolIndex",
          "type": "uint256"
        },
        {
          "indexed": false,
          "name": "_priceInWei",
          "type": "uint256"
        },
        {
          "indexed": false,
          "name": "_orderKey",
          "type": "uint256"
        }
      ],
      "name": "BuyOrderCancelled",
      "type": "event"
    },
    {
      "anonymous": false,
      "inputs": [
        {
          "indexed": false,
          "name": "_symbolIndex",
          "type": "uint256"
        },
        {
          "indexed": false,
          "name": "_token",
          "type": "string"
        },
        {
          "indexed": false,
          "name": "_timestamp",
          "type": "uint256"
        }
      ],
      "name": "TokenAddedToSystem",
      "type": "event"
    },
    {
      "anonymous": false,
      "inputs": [
        {
          "indexed": false,
          "name": "msg",
          "type": "string"
        },
        {
          "indexed": false,
          "name": "variable",
          "type": "uint256"
        }
      ],
      "name": "Debug",
      "type": "event"
    }
  ],
  "bytecode": "0x6060604052336000806101000a81548173ffffffffffffffffffffffffffffffffffffffff021916908373ffffffffffffffffffffffffffffffffffffffff160217905550615182806100536000396000f3006060604052600436106100d0576000357c0100000000000000000000000000000000000000000000000000000000900463ffffffff16806303bc4a27146100d55780631a8eb72b146101cf57806333ad57e4146101f85780633a51d2461461025e5780633bed33ce146102cf5780635ab8ea33146102f2578063728ff02914610361578063851030fe1461045b5780638ea00818146104ca578063977377f81461053f57806398ea5fca146105b6578063b0b22c2c146105c0578063c97a413a1461063c578063d1a3b025146106a2575b600080fd5b34156100e057600080fd5b610130600480803590602001908201803590602001908080601f0160208091040260200160405190810160405280939291908181526020018383808284378201915050505050509190505061071c565b604051808060200180602001838103835285818151815260200191508051906020019060200280838360005b8381101561017757808201518184015260208101905061015c565b50505050905001838103825284818151815260200191508051906020019060200280838360005b838110156101b957808201518184015260208101905061019e565b5050505090500194505050505060405180910390f35b34156101da57600080fd5b6101e26109c3565b6040518082815260200191505060405180910390f35b341561020357600080fd5b61025c600480803590602001908201803590602001908080601f01602080910402602001604051908101604052809392919081815260200183838082843782019150505050505091908035906020019091905050610a0a565b005b341561026957600080fd5b6102b9600480803590602001908201803590602001908080601f01602080910402602001604051908101604052809392919081815260200183838082843782019150505050505091905050610d77565b6040518082815260200191505060405180910390f35b34156102da57600080fd5b6102f06004808035906020019091905050610de4565b005b34156102fd57600080fd5b61035f600480803590602001908201803590602001908080601f01602080910402602001604051908101604052809392919081815260200183838082843782019150505050505091908035906020019091908035906020019091905050610faa565b005b341561036c57600080fd5b6103bc600480803590602001908201803590602001908080601f01602080910402602001604051908101604052809392919081815260200183838082843782019150505050505091905050612057565b604051808060200180602001838103835285818151815260200191508051906020019060200280838360005b838110156104035780820151818401526020810190506103e8565b50505050905001838103825284818151815260200191508051906020019060200280838360005b8381101561044557808201518184015260208101905061042a565b5050505090500194505050505060405180910390f35b341561046657600080fd5b6104c8600480803590602001908201803590602001908080601f016020809104026020016040519081016040528093929190818152602001838380828437820191505050505050919080359060200190919080359060200190919050506122d4565b005b34156104d557600080fd5b610525600480803590602001908201803590602001908080601f016020809104026020016040519081016040528093929190818152602001838380828437820191505050505050919050506132e3565b604051808215151515815260200191505060405180910390f35b341561054a57600080fd5b61059a600480803590602001908201803590602001908080601f01602080910402602001604051908101604052809392919081815260200183838082843782019150505050505091905050613311565b604051808260ff1660ff16815260200191505060405180910390f35b6105be61333a565b005b34156105cb57600080fd5b61063a600480803590602001908201803590602001908080601f0160208091040260200160405190810160405280939291908181526020018383808284378201915050505050509190803573ffffffffffffffffffffffffffffffffffffffff1690602001909190505061346e565b005b341561064757600080fd5b6106a0600480803590602001908201803590602001908080601f01602080910402602001604051908101604052809392919081815260200183838082843782019150505050505091908035906020019091905050613677565b005b34156106ad57600080fd5b61071a600480803590602001908201803590602001908080601f016020809104026020016040519081016040528093929190818152602001838380828437820191505050505050919080351515906020019091908035906020019091908035906020019091905050613a09565b005b610724615089565b61072c615089565b6000610736615089565b61073e615089565b60008060008061074d8a613311565b9650600160008860ff1660ff168152602001908152602001600020600601546040518059106107795750595b90808252806020026020018201604052509550600160008860ff1660ff168152602001908152602001600020600601546040518059106107b65750595b90808252806020026020018201604052509450600160008860ff1660ff168152602001908152602001600020600501549350600092506000600160008960ff1660ff1681526020019081526020016000206004015411156109b1575b600160008860ff1660ff16815260200190815260200160002060040154841115156109b05783868481518110151561084657fe5b90602001906020020181815250506000915060009050600160008860ff1660ff16815260200190815260200160002060020160008581526020019081526020016000206003015490505b600160008860ff1660ff1681526020019081526020016000206002016000858152602001908152602001600020600401548111151561091f57600160008860ff1660ff1681526020019081526020016000206002016000858152602001908152602001600020600201600082815260200190815260200160002060000154820191508080600101915050610890565b81858481518110151561092e57fe5b9060200190602002018181525050600160008860ff1660ff168152602001908152602001600020600401548414806109665750600084145b15610970576109b0565b600160008860ff1660ff16815260200190815260200160002060020160008581526020019081526020016000206000015493508280600101935050610812565b5b85859850985050505050505050915091565b6000600460003373ffffffffffffffffffffffffffffffffffffffff1673ffffffffffffffffffffffffffffffffffffffff16815260200190815260200160002054905090565b600080600083111515610a1957fe5b610a2284613311565b9150600073ffffffffffffffffffffffffffffffffffffffff16600160008460ff1660ff16815260200190815260200160002060000160009054906101000a900473ffffffffffffffffffffffffffffffffffffffff1673ffffffffffffffffffffffffffffffffffffffff1614151515610a9c57600080fd5b600160008360ff1660ff16815260200190815260200160002060000160009054906101000a900473ffffffffffffffffffffffffffffffffffffffff169050600115158173ffffffffffffffffffffffffffffffffffffffff166323b872dd3330876000604051602001526040518463ffffffff167c0100000000000000000000000000000000000000000000000000000000028152600401808473ffffffffffffffffffffffffffffffffffffffff1673ffffffffffffffffffffffffffffffffffffffff1681526020018373ffffffffffffffffffffffffffffffffffffffff1673ffffffffffffffffffffffffffffffffffffffff1681526020018281526020019350505050602060405180830381600087803b1515610bbe57600080fd5b6102c65a03f11515610bcf57600080fd5b505050604051805190501515141515610be757600080fd5b600360003373ffffffffffffffffffffffffffffffffffffffff1673ffffffffffffffffffffffffffffffffffffffff16815260200190815260200160002060008360ff1660ff1681526020019081526020016000205483600360003373ffffffffffffffffffffffffffffffffffffffff1673ffffffffffffffffffffffffffffffffffffffff16815260200190815260200160002060008560ff1660ff168152602001908152602001600020540110151515610ca457600080fd5b82600360003373ffffffffffffffffffffffffffffffffffffffff1673ffffffffffffffffffffffffffffffffffffffff16815260200190815260200160002060008460ff1660ff16815260200190815260200160002060008282540192505081905550600260009054906101000a900460ff1660ff163373ffffffffffffffffffffffffffffffffffffffff167fc0aa5496c7b01c4b317a58e270b45f383bcd6ae57f9e5124db9c0674b77764998542604051808381526020018281526020019250505060405180910390a350505050565b600080610d8383613311565b9050600360003373ffffffffffffffffffffffffffffffffffffffff1673ffffffffffffffffffffffffffffffffffffffff16815260200190815260200160002060008260ff1660ff16815260200190815260200160002054915050919050565b600034600460003373ffffffffffffffffffffffffffffffffffffffff1673ffffffffffffffffffffffffffffffffffffffff168152602001908152602001600020540310151515610e3557600080fd5b600460003373ffffffffffffffffffffffffffffffffffffffff1673ffffffffffffffffffffffffffffffffffffffff1681526020019081526020016000205434600460003373ffffffffffffffffffffffffffffffffffffffff1673ffffffffffffffffffffffffffffffffffffffff168152602001908152602001600020540311151515610ec457600080fd5b80600460003373ffffffffffffffffffffffffffffffffffffffff1673ffffffffffffffffffffffffffffffffffffffff168152602001908152602001600020600082825403925050819055503373ffffffffffffffffffffffffffffffffffffffff166108fc829081150290604051600060405180830381858888f193505050501515610f5157600080fd5b3373ffffffffffffffffffffffffffffffffffffffff167fac9513adf40097763b4664bee3693d0f051127c5ac55e33f68926c1612ac59958242604051808381526020018281526020019250505060405180910390a250565b6000806000806000806000610fbe8a613311565b965060009550600094508888029550878610151515610fdc57600080fd5b888610151515610feb57600080fd5b85600460003373ffffffffffffffffffffffffffffffffffffffff1673ffffffffffffffffffffffffffffffffffffffff168152602001908152602001600020541015151561103957600080fd5b600086600460003373ffffffffffffffffffffffffffffffffffffffff1673ffffffffffffffffffffffffffffffffffffffff16815260200190815260200160002054031015151561108a57600080fd5b85600460003373ffffffffffffffffffffffffffffffffffffffff1673ffffffffffffffffffffffffffffffffffffffff168152602001908152602001600020600082825403925050819055506000600160008960ff1660ff16815260200190815260200160002060090154148061111d575088600160008960ff1660ff16815260200190815260200160002060070154115b156111c55761112e878a8a33613f11565b3373ffffffffffffffffffffffffffffffffffffffff168760ff167f2ef51fa215957689865f55575d7d89840bee8fce54b23ef826fea1a304acdd3f8a8c600160008d60ff1660ff16815260200190815260200160002060020160008f81526020019081526020016000206004015460405180848152602001838152602001828152602001935050505060405180910390a361204b565b60009450600160008860ff1660ff1681526020019081526020016000206007015493508792505b8884111580156111fc5750600083115b801561122557506000600160008960ff1660ff1681526020019081526020016000206007015414155b15611fe857600160008860ff1660ff16815260200190815260200160002060030160008581526020019081526020016000206003015491505b600160008860ff1660ff168152602001908152602001600020600301600085815260200190815260200160002060040154821115801561129e5750600083115b15611fc457600160008860ff1660ff1681526020019081526020016000206003016000858152602001908152602001600020600201600083815260200190815260200160002060000154905082811115156118435783810294508060036000600160008b60ff1660ff1681526020019081526020016000206003016000888152602001908152602001600020600201600086815260200190815260200160002060010160009054906101000a900473ffffffffffffffffffffffffffffffffffffffff1673ffffffffffffffffffffffffffffffffffffffff1673ffffffffffffffffffffffffffffffffffffffff16815260200190815260200160002060008960ff1660ff16815260200190815260200160002054101515156113c157600080fd5b600085600460003373ffffffffffffffffffffffffffffffffffffffff1673ffffffffffffffffffffffffffffffffffffffff16815260200190815260200160002054031015151561141257600080fd5b600460003373ffffffffffffffffffffffffffffffffffffffff1673ffffffffffffffffffffffffffffffffffffffff1681526020019081526020016000205485600460003373ffffffffffffffffffffffffffffffffffffffff1673ffffffffffffffffffffffffffffffffffffffff1681526020019081526020016000205403111515156114a157600080fd5b60046000600160008a60ff1660ff1681526020019081526020016000206003016000878152602001908152602001600020600201600085815260200190815260200160002060010160009054906101000a900473ffffffffffffffffffffffffffffffffffffffff1673ffffffffffffffffffffffffffffffffffffffff1673ffffffffffffffffffffffffffffffffffffffff168152602001908152602001600020548560046000600160008c60ff1660ff1681526020019081526020016000206003016000898152602001908152602001600020600201600087815260200190815260200160002060010160009054906101000a900473ffffffffffffffffffffffffffffffffffffffff1673ffffffffffffffffffffffffffffffffffffffff1673ffffffffffffffffffffffffffffffffffffffff1681526020019081526020016000205401101515156115f857600080fd5b84600460003373ffffffffffffffffffffffffffffffffffffffff1673ffffffffffffffffffffffffffffffffffffffff168152602001908152602001600020600082825403925050819055508460046000600160008b60ff1660ff1681526020019081526020016000206003016000888152602001908152602001600020600201600086815260200190815260200160002060010160009054906101000a900473ffffffffffffffffffffffffffffffffffffffff1673ffffffffffffffffffffffffffffffffffffffff1673ffffffffffffffffffffffffffffffffffffffff1681526020019081526020016000206000828254019250508190555080600360003373ffffffffffffffffffffffffffffffffffffffff1673ffffffffffffffffffffffffffffffffffffffff16815260200190815260200160002060008960ff1660ff168152602001908152602001600020600082825401925050819055506000600160008960ff1660ff1681526020019081526020016000206003016000868152602001908152602001600020600201600084815260200190815260200160002060000181905550600160008860ff1660ff1681526020019081526020016000206003016000858152602001908152602001600020600301600081548092919060010191905055508083039250600083141561183e578660ff167f2779ea6dd005243d83747345c715a92b3c58485538dcd17a3919a57216f192d482868560405180848152602001838152602001828152602001935050505060405180910390a25b611d7b565b82600160008960ff1660ff168152602001908152602001600020600301600086815260200190815260200160002060020160008481526020019081526020016000206000015411151561189557600080fd5b83830295508260036000600160008b60ff1660ff1681526020019081526020016000206003016000888152602001908152602001600020600201600086815260200190815260200160002060010160009054906101000a900473ffffffffffffffffffffffffffffffffffffffff1673ffffffffffffffffffffffffffffffffffffffff1673ffffffffffffffffffffffffffffffffffffffff16815260200190815260200160002060008960ff1660ff168152602001908152602001600020541015151561196357600080fd5b60046000600160008a60ff1660ff1681526020019081526020016000206003016000878152602001908152602001600020600201600085815260200190815260200160002060010160009054906101000a900473ffffffffffffffffffffffffffffffffffffffff1673ffffffffffffffffffffffffffffffffffffffff1673ffffffffffffffffffffffffffffffffffffffff168152602001908152602001600020548660046000600160008c60ff1660ff1681526020019081526020016000206003016000898152602001908152602001600020600201600087815260200190815260200160002060010160009054906101000a900473ffffffffffffffffffffffffffffffffffffffff1673ffffffffffffffffffffffffffffffffffffffff1673ffffffffffffffffffffffffffffffffffffffff168152602001908152602001600020540110151515611aba57600080fd5b600360003373ffffffffffffffffffffffffffffffffffffffff1673ffffffffffffffffffffffffffffffffffffffff16815260200190815260200160002060008860ff1660ff1681526020019081526020016000205483600360003373ffffffffffffffffffffffffffffffffffffffff1673ffffffffffffffffffffffffffffffffffffffff16815260200190815260200160002060008a60ff1660ff168152602001908152602001600020540110151515611b7757600080fd5b82600160008960ff1660ff168152602001908152602001600020600301600086815260200190815260200160002060020160008481526020019081526020016000206000016000828254039250508190555082600360003373ffffffffffffffffffffffffffffffffffffffff1673ffffffffffffffffffffffffffffffffffffffff16815260200190815260200160002060008960ff1660ff1681526020019081526020016000206000828254019250508190555085600460003373ffffffffffffffffffffffffffffffffffffffff1673ffffffffffffffffffffffffffffffffffffffff168152602001908152602001600020600082825403925050819055508560046000600160008b60ff1660ff1681526020019081526020016000206003016000888152602001908152602001600020600201600086815260200190815260200160002060010160009054906101000a900473ffffffffffffffffffffffffffffffffffffffff1673ffffffffffffffffffffffffffffffffffffffff1673ffffffffffffffffffffffffffffffffffffffff168152602001908152602001600020600082825401925050819055508660ff167f2779ea6dd005243d83747345c715a92b3c58485538dcd17a3919a57216f192d484868560405180848152602001838152602001828152602001935050505060405180910390a2600092505b600160008860ff1660ff16815260200190815260200160002060030160008581526020019081526020016000206004015482148015611dfe57506000600160008960ff1660ff1681526020019081526020016000206003016000868152602001908152602001600020600201600084815260200190815260200160002060000154145b15611fb757600160008860ff1660ff1681526020019081526020016000206009016000815480929190600190039190505550600160008860ff1660ff168152602001908152602001600020600301600085815260200190815260200160002060000154841480611e6e5750600084145b80611e9557506000600160008960ff1660ff16815260200190815260200160002060090154145b15611ee3576000600160008960ff1660ff168152602001908152602001600020600701819055506000600160008960ff1660ff16815260200190815260200160002060080181905550611fb6565b600160008860ff1660ff168152602001908152602001600020600301600085815260200190815260200160002060000154600160008960ff1660ff16815260200190815260200160002060070181905550600160008860ff1660ff16815260200190815260200160002060070154600160008960ff1660ff1681526020019081526020016000206003016000600160008b60ff1660ff1681526020019081526020016000206002016000888152602001908152602001600020600001548152602001908152602001600020600101819055505b5b818060010192505061125e565b600160008860ff1660ff1681526020019081526020016000206007015493506111ec565b600083111561204a5782600460003373ffffffffffffffffffffffffffffffffffffffff1673ffffffffffffffffffffffffffffffffffffffff168152602001908152602001600020600082825401925050819055506120498a8a85610faa565b5b5b50505050505050505050565b61205f615089565b612067615089565b6000612071615089565b612079615089565b6000806000806120888a613311565b9650600160008860ff1660ff168152602001908152602001600020600901546040518059106120b45750595b90808252806020026020018201604052509550600160008860ff1660ff168152602001908152602001600020600901546040518059106120f15750595b90808252806020026020018201604052509450600160008860ff1660ff168152602001908152602001600020600801549350600092506000600160008960ff1660ff1681526020019081526020016000206007015411156122c2575b600160008860ff1660ff16815260200190815260200160002060070154841015156122c15783868481518110151561218157fe5b906020019060200201818152505060009150600160008860ff1660ff16815260200190815260200160002060030160008581526020019081526020016000206003015490505b600160008860ff1660ff1681526020019081526020016000206003016000858152602001908152602001600020600401548111151561225657600160008860ff1660ff16815260200190815260200160002060030160008581526020019081526020016000206002016000828152602001908152602001600020600001548201915080806001019150506121c7565b81858481518110151561226557fe5b90602001906020020181815250506000841415612281576122c1565b600160008860ff1660ff1681526020019081526020016000206003016000858152602001908152602001600020600101549350828060010193505061214d565b5b85859850985050505050505050915091565b60008060008060008060006122e88a613311565b96506000955060009450600360003373ffffffffffffffffffffffffffffffffffffffff1673ffffffffffffffffffffffffffffffffffffffff16815260200190815260200160002060008860ff1660ff1681526020019081526020016000205488600360003373ffffffffffffffffffffffffffffffffffffffff1673ffffffffffffffffffffffffffffffffffffffff16815260200190815260200160002060008a60ff1660ff1681526020019081526020016000205403111515156123af57600080fd5b600088600360003373ffffffffffffffffffffffffffffffffffffffff1673ffffffffffffffffffffffffffffffffffffffff16815260200190815260200160002060008a60ff1660ff16815260200190815260200160002054031015151561241757600080fd5b87600360003373ffffffffffffffffffffffffffffffffffffffff1673ffffffffffffffffffffffffffffffffffffffff16815260200190815260200160002060008960ff1660ff168152602001908152602001600020600082825403925050819055506000600160008960ff1660ff1681526020019081526020016000206006015414806124c1575088600160008960ff1660ff16815260200190815260200160002060040154105b15612569576124d2878a8a336146e3565b3373ffffffffffffffffffffffffffffffffffffffff168760ff167fc7d136f10bcb424de2ff60d5473d863ed2fdcd5d352e045d89ee9581f54f6afb8a8c600160008d60ff1660ff16815260200190815260200160002060030160008f81526020019081526020016000206004015460405180848152602001838152602001828152602001935050505060405180910390a36132d7565b600160008860ff1660ff1681526020019081526020016000206004015493508792505b88841015801561259c5750600083115b1561325d57600160008860ff1660ff16815260200190815260200160002060020160008581526020019081526020016000206003015491505b600160008860ff1660ff16815260200190815260200160002060020160008581526020019081526020016000206004015482111580156126155750600083115b1561323957600160008860ff1660ff168152602001908152602001600020600201600085815260200190815260200160002060020160008381526020019081526020016000206000015490508281111515612b4e57838102945080600360003373ffffffffffffffffffffffffffffffffffffffff1673ffffffffffffffffffffffffffffffffffffffff16815260200190815260200160002060008960ff1660ff16815260200190815260200160002054101515156126d457600080fd5b600081600360003373ffffffffffffffffffffffffffffffffffffffff1673ffffffffffffffffffffffffffffffffffffffff16815260200190815260200160002060008a60ff1660ff16815260200190815260200160002054031015151561273c57600080fd5b60036000600160008a60ff1660ff1681526020019081526020016000206002016000878152602001908152602001600020600201600085815260200190815260200160002060010160009054906101000a900473ffffffffffffffffffffffffffffffffffffffff1673ffffffffffffffffffffffffffffffffffffffff1673ffffffffffffffffffffffffffffffffffffffff16815260200190815260200160002060008860ff1660ff168152602001908152602001600020548160036000600160008c60ff1660ff1681526020019081526020016000206002016000898152602001908152602001600020600201600087815260200190815260200160002060010160009054906101000a900473ffffffffffffffffffffffffffffffffffffffff1673ffffffffffffffffffffffffffffffffffffffff1673ffffffffffffffffffffffffffffffffffffffff16815260200190815260200160002060008a60ff1660ff1681526020019081526020016000205401101515156128c157600080fd5b600460003373ffffffffffffffffffffffffffffffffffffffff1673ffffffffffffffffffffffffffffffffffffffff1681526020019081526020016000205485600460003373ffffffffffffffffffffffffffffffffffffffff1673ffffffffffffffffffffffffffffffffffffffff16815260200190815260200160002054011015151561295057600080fd5b8060036000600160008b60ff1660ff1681526020019081526020016000206002016000888152602001908152602001600020600201600086815260200190815260200160002060010160009054906101000a900473ffffffffffffffffffffffffffffffffffffffff1673ffffffffffffffffffffffffffffffffffffffff1673ffffffffffffffffffffffffffffffffffffffff16815260200190815260200160002060008960ff1660ff168152602001908152602001600020600082825401925050819055506000600160008960ff1660ff168152602001908152602001600020600201600086815260200190815260200160002060020160008481526020019081526020016000206000018190555084600460003373ffffffffffffffffffffffffffffffffffffffff1673ffffffffffffffffffffffffffffffffffffffff16815260200190815260200160002060008282540192505081905550600160008860ff1660ff16815260200190815260200160002060020160008581526020019081526020016000206003016000815480929190600101919050555080830392506000831415612b49578660ff167fcbfa5edcd918ef1ec42746c71ac83c456f37330c83a22e44d6cfdca22d56471082868560405180848152602001838152602001828152602001935050505060405180910390a25b612ff9565b6000838203111515612b5f57600080fd5b838302955082600360003373ffffffffffffffffffffffffffffffffffffffff1673ffffffffffffffffffffffffffffffffffffffff16815260200190815260200160002060008960ff1660ff1681526020019081526020016000205410151515612bc957600080fd5b82600360003373ffffffffffffffffffffffffffffffffffffffff1673ffffffffffffffffffffffffffffffffffffffff16815260200190815260200160002060008960ff1660ff1681526020019081526020016000205410151515612c2e57600080fd5b600460003373ffffffffffffffffffffffffffffffffffffffff1673ffffffffffffffffffffffffffffffffffffffff1681526020019081526020016000205486600460003373ffffffffffffffffffffffffffffffffffffffff1673ffffffffffffffffffffffffffffffffffffffff168152602001908152602001600020540110151515612cbd57600080fd5b60036000600160008a60ff1660ff1681526020019081526020016000206002016000878152602001908152602001600020600201600085815260200190815260200160002060010160009054906101000a900473ffffffffffffffffffffffffffffffffffffffff1673ffffffffffffffffffffffffffffffffffffffff1673ffffffffffffffffffffffffffffffffffffffff16815260200190815260200160002060008860ff1660ff168152602001908152602001600020548360036000600160008c60ff1660ff1681526020019081526020016000206002016000898152602001908152602001600020600201600087815260200190815260200160002060010160009054906101000a900473ffffffffffffffffffffffffffffffffffffffff1673ffffffffffffffffffffffffffffffffffffffff1673ffffffffffffffffffffffffffffffffffffffff16815260200190815260200160002060008a60ff1660ff168152602001908152602001600020540110151515612e4257600080fd5b82600160008960ff1660ff168152602001908152602001600020600201600086815260200190815260200160002060020160008481526020019081526020016000206000016000828254039250508190555085600460003373ffffffffffffffffffffffffffffffffffffffff1673ffffffffffffffffffffffffffffffffffffffff168152602001908152602001600020600082825401925050819055508260036000600160008b60ff1660ff1681526020019081526020016000206002016000888152602001908152602001600020600201600086815260200190815260200160002060010160009054906101000a900473ffffffffffffffffffffffffffffffffffffffff1673ffffffffffffffffffffffffffffffffffffffff1673ffffffffffffffffffffffffffffffffffffffff16815260200190815260200160002060008960ff1660ff168152602001908152602001600020600082825401925050819055508660ff167fcbfa5edcd918ef1ec42746c71ac83c456f37330c83a22e44d6cfdca22d56471084868560405180848152602001838152602001828152602001935050505060405180910390a2600092505b600160008860ff1660ff1681526020019081526020016000206002016000858152602001908152602001600020600401548214801561307c57506000600160008960ff1660ff1681526020019081526020016000206002016000868152602001908152602001600020600201600084815260200190815260200160002060000154145b1561322c57600160008860ff1660ff16815260200190815260200160002060060160008154809291906001900391905055506000600160008960ff1660ff16815260200190815260200160002060020160008681526020019081526020016000206001015414801561310a57506000600160008960ff1660ff16815260200190815260200160002060060154145b15613158576000600160008960ff1660ff168152602001908152602001600020600401819055506000600160008960ff1660ff1681526020019081526020016000206005018190555061322b565b600160008860ff1660ff168152602001908152602001600020600201600085815260200190815260200160002060010154600160008960ff1660ff16815260200190815260200160002060040181905550600160008860ff1660ff16815260200190815260200160002060040154600160008960ff1660ff1681526020019081526020016000206002016000600160008b60ff1660ff1681526020019081526020016000206003016000888152602001908152602001600020600101548152602001908152602001600020600001819055505b5b81806001019250506125d5565b600160008860ff1660ff16815260200190815260200160002060040154935061258c565b60008311156132d65782600360003373ffffffffffffffffffffffffffffffffffffffff1673ffffffffffffffffffffffffffffffffffffffff16815260200190815260200160002060008960ff1660ff168152602001908152602001600020600082825401925050819055506132d58a8a856122d4565b5b5b50505050505050505050565b6000806132ef83614e90565b905060008160ff161415613306576000915061330b565b600191505b50919050565b60008061331d83614e90565b905060008160ff1611151561333157600080fd5b80915050919050565b600460003373ffffffffffffffffffffffffffffffffffffffff1673ffffffffffffffffffffffffffffffffffffffff1681526020019081526020016000205434600460003373ffffffffffffffffffffffffffffffffffffffff1673ffffffffffffffffffffffffffffffffffffffff1681526020019081526020016000205401101515156133c957600080fd5b34600460003373ffffffffffffffffffffffffffffffffffffffff1673ffffffffffffffffffffffffffffffffffffffff168152602001908152602001600020600082825401925050819055503373ffffffffffffffffffffffffffffffffffffffff167f42dbebeb8f6fb795e3007753aef2d4b1a292dd123f6de06a41050186741506373442604051808381526020018281526020019250505060405180910390a2565b6000809054906101000a900473ffffffffffffffffffffffffffffffffffffffff1673ffffffffffffffffffffffffffffffffffffffff163373ffffffffffffffffffffffffffffffffffffffff161415613673576134cc826132e3565b1515156134d857600080fd5b6002600081819054906101000a900460ff168092919060010191906101000a81548160ff021916908360ff160217905550508160016000600260009054906101000a900460ff1660ff1660ff168152602001908152602001600020600101908051906020019061354992919061509d565b508060016000600260009054906101000a900460ff1660ff1660ff16815260200190815260200160002060000160006101000a81548173ffffffffffffffffffffffffffffffffffffffff021916908373ffffffffffffffffffffffffffffffffffffffff1602179055507f6c71eb76d5d82031f490d3e44dc01d298444e569078199b14510435d81b59ff7600260009054906101000a900460ff168342604051808460ff16815260200180602001838152602001828103825284818151815260200191508051906020019080838360005b8381101561363657808201518184015260208101905061361b565b50505050905090810190601f1680156136635780820380516001836020036101000a031916815260200191505b5094505050505060405180910390a15b5050565b60008061368384614e90565b9150600073ffffffffffffffffffffffffffffffffffffffff16600160008460ff1660ff16815260200190815260200160002060000160009054906101000a900473ffffffffffffffffffffffffffffffffffffffff1673ffffffffffffffffffffffffffffffffffffffff16141515156136fd57600080fd5b82600360003373ffffffffffffffffffffffffffffffffffffffff1673ffffffffffffffffffffffffffffffffffffffff16815260200190815260200160002060008460ff1660ff168152602001908152602001600020541015151561376257600080fd5b600360003373ffffffffffffffffffffffffffffffffffffffff1673ffffffffffffffffffffffffffffffffffffffff16815260200190815260200160002060008360ff1660ff1681526020019081526020016000205483600360003373ffffffffffffffffffffffffffffffffffffffff1673ffffffffffffffffffffffffffffffffffffffff16815260200190815260200160002060008560ff1660ff16815260200190815260200160002054031115151561381f57600080fd5b600160008360ff1660ff16815260200190815260200160002060000160009054906101000a900473ffffffffffffffffffffffffffffffffffffffff16905082600360003373ffffffffffffffffffffffffffffffffffffffff1673ffffffffffffffffffffffffffffffffffffffff16815260200190815260200160002060008460ff1660ff16815260200190815260200160002060008282540392505081905550600115158173ffffffffffffffffffffffffffffffffffffffff1663a9059cbb33866000604051602001526040518363ffffffff167c0100000000000000000000000000000000000000000000000000000000028152600401808373ffffffffffffffffffffffffffffffffffffffff1673ffffffffffffffffffffffffffffffffffffffff16815260200182815260200192505050602060405180830381600087803b151561397157600080fd5b6102c65a03f1151561398257600080fd5b50505060405180519050151514151561399a57600080fd5b600260009054906101000a900460ff1660ff163373ffffffffffffffffffffffffffffffffffffffff167faed5c5198ccd7615c0128c72fcfc060e97b14315cb791a46bf42b5b6f36c38b98542604051808381526020018281526020019250505060405180910390a350505050565b6000806000613a1787613311565b92508515613cb7573373ffffffffffffffffffffffffffffffffffffffff16600160008560ff1660ff1681526020019081526020016000206003016000878152602001908152602001600020600201600086815260200190815260200160002060010160009054906101000a900473ffffffffffffffffffffffffffffffffffffffff1673ffffffffffffffffffffffffffffffffffffffff16141515613abd57600080fd5b600160008460ff1660ff16815260200190815260200160002060030160008681526020019081526020016000206002016000858152602001908152602001600020600001549150600360003373ffffffffffffffffffffffffffffffffffffffff1673ffffffffffffffffffffffffffffffffffffffff16815260200190815260200160002060008460ff1660ff1681526020019081526020016000205482600360003373ffffffffffffffffffffffffffffffffffffffff1673ffffffffffffffffffffffffffffffffffffffff16815260200190815260200160002060008660ff1660ff168152602001908152602001600020540110151515613bc157600080fd5b81600360003373ffffffffffffffffffffffffffffffffffffffff1673ffffffffffffffffffffffffffffffffffffffff16815260200190815260200160002060008560ff1660ff168152602001908152602001600020600082825401925050819055506000600160008560ff1660ff16815260200190815260200160002060030160008781526020019081526020016000206002016000868152602001908152602001600020600001819055508260ff167ff9ec2e44841d45bcb9d1036888042952c3eaf90bbfe2c6c7045a30e221736e108686604051808381526020018281526020019250505060405180910390a2613f08565b3373ffffffffffffffffffffffffffffffffffffffff16600160008560ff1660ff1681526020019081526020016000206002016000878152602001908152602001600020600201600086815260200190815260200160002060010160009054906101000a900473ffffffffffffffffffffffffffffffffffffffff1673ffffffffffffffffffffffffffffffffffffffff16141515613d5557600080fd5b84600160008560ff1660ff1681526020019081526020016000206002016000878152602001908152602001600020600201600086815260200190815260200160002060000154029050600460003373ffffffffffffffffffffffffffffffffffffffff1673ffffffffffffffffffffffffffffffffffffffff1681526020019081526020016000205481600460003373ffffffffffffffffffffffffffffffffffffffff1673ffffffffffffffffffffffffffffffffffffffff168152602001908152602001600020540110151515613e2d57600080fd5b80600460003373ffffffffffffffffffffffffffffffffffffffff1673ffffffffffffffffffffffffffffffffffffffff168152602001908152602001600020600082825401925050819055506000600160008560ff1660ff16815260200190815260200160002060020160008781526020019081526020016000206002016000868152602001908152602001600020600001819055508260ff167f48eeb484cc188c2d092ed41cf58a57b519f01a5dd2694a95a4e19504afe8064f8686604051808381526020018281526020019250505060405180910390a25b50505050505050565b600080600080600160008960ff1660ff16815260200190815260200160002060020160008881526020019081526020016000206004016000815480929190600101919050555060408051908101604052808781526020018673ffffffffffffffffffffffffffffffffffffffff16815250600160008a60ff1660ff16815260200190815260200160002060020160008981526020019081526020016000206002016000600160008c60ff1660ff16815260200190815260200160002060020160008b81526020019081526020016000206004015481526020019081526020016000206000820151816000015560208201518160010160006101000a81548173ffffffffffffffffffffffffffffffffffffffff021916908373ffffffffffffffffffffffffffffffffffffffff1602179055509050506000600160008a60ff1660ff1681526020019081526020016000206002016000898152602001908152602001600020600201600060018060008d60ff1660ff16815260200190815260200160002060020160008c815260200190815260200160002060040154038152602001908152602001600020600001541480156140fc575060018060008a60ff1660ff168152602001908152602001600020600201600089815260200190815260200160002060040154115b156142085786600160008a60ff1660ff16815260200190815260200160002060050154118061414757506000600160008a60ff1660ff16815260200190815260200160002060050154145b1561416e5786600160008a60ff1660ff168152602001908152602001600020600501819055505b86600160008a60ff1660ff1681526020019081526020016000206004015410806141b457506000600160008a60ff1660ff16815260200190815260200160002060070154145b156141db5786600160008a60ff1660ff168152602001908152602001600020600401819055505b600160008960ff1660ff168152602001908152602001600020600601600081548092919060010191905055505b60018060008a60ff1660ff16815260200190815260200160002060020160008981526020019081526020016000206004015414156146d957600160008960ff1660ff16815260200190815260200160002060060160008154809291906001019190505550600160008960ff1660ff168152602001908152602001600020600401549350600160008960ff1660ff16815260200190815260200160002060050154925060008314806142b857508683115b1561441e5760008414156143575786600160008a60ff1660ff1681526020019081526020016000206004018190555086600160008a60ff1660ff1681526020019081526020016000206002016000898152602001908152602001600020600001819055506000600160008a60ff1660ff1681526020019081526020016000206002016000898152602001908152602001600020600101819055506143f8565b86600160008a60ff1660ff16815260200190815260200160002060020160008581526020019081526020016000206001018190555082600160008a60ff1660ff1681526020019081526020016000206002016000898152602001908152602001600020600001819055506000600160008a60ff1660ff1681526020019081526020016000206002016000898152602001908152602001600020600101819055505b86600160008a60ff1660ff168152602001908152602001600020600501819055506146d8565b868410156144eb5786600160008a60ff1660ff16815260200190815260200160002060020160008681526020019081526020016000206000018190555086600160008a60ff1660ff16815260200190815260200160002060020160008981526020019081526020016000206000018190555083600160008a60ff1660ff16815260200190815260200160002060020160008981526020019081526020016000206001018190555086600160008a60ff1660ff168152602001908152602001600020600401819055506146d7565b600160008960ff1660ff168152602001908152602001600020600401549150600090505b60008211801561451d575080155b156146d6578682108015614560575086600160008a60ff1660ff168152602001908152602001600020600201600084815260200190815260200160002060000154115b1561469e5781600160008a60ff1660ff168152602001908152602001600020600201600089815260200190815260200160002060010181905550600160008960ff1660ff168152602001908152602001600020600201600083815260200190815260200160002060000154600160008a60ff1660ff16815260200190815260200160002060020160008981526020019081526020016000206000018190555086600160008a60ff1660ff1681526020019081526020016000206002016000600160008c60ff1660ff16815260200190815260200160002060020160008681526020019081526020016000206000015481526020019081526020016000206001018190555086600160008a60ff1660ff168152602001908152602001600020600201600084815260200190815260200160002060000181905550600190505b600160008960ff1660ff168152602001908152602001600020600201600083815260200190815260200160002060010154915061450f565b5b5b5b5050505050505050565b600080600080600160008960ff1660ff16815260200190815260200160002060030160008881526020019081526020016000206004016000815480929190600101919050555060408051908101604052808781526020018673ffffffffffffffffffffffffffffffffffffffff16815250600160008a60ff1660ff16815260200190815260200160002060030160008981526020019081526020016000206002016000600160008c60ff1660ff16815260200190815260200160002060030160008b81526020019081526020016000206004015481526020019081526020016000206000820151816000015560208201518160010160006101000a81548173ffffffffffffffffffffffffffffffffffffffff021916908373ffffffffffffffffffffffffffffffffffffffff1602179055509050506000600160008a60ff1660ff1681526020019081526020016000206003016000898152602001908152602001600020600201600060018060008d60ff1660ff16815260200190815260200160002060030160008c815260200190815260200160002060040154038152602001908152602001600020600001541480156148ce575060018060008a60ff1660ff168152602001908152602001600020600301600089815260200190815260200160002060040154115b156149b35786600160008a60ff1660ff1681526020019081526020016000206008015410156149195786600160008a60ff1660ff168152602001908152602001600020600801819055505b86600160008a60ff1660ff16815260200190815260200160002060070154118061495f57506000600160008a60ff1660ff16815260200190815260200160002060070154145b156149865786600160008a60ff1660ff168152602001908152602001600020600701819055505b600160008960ff1660ff168152602001908152602001600020600901600081548092919060010191905055505b60018060008a60ff1660ff1681526020019081526020016000206003016000898152602001908152602001600020600401541415614e8657600160008960ff1660ff16815260200190815260200160002060090160008154809291906001019190505550600160008960ff1660ff168152602001908152602001600020600701549350600160008960ff1660ff1681526020019081526020016000206008015492506000831480614a6357508683105b15614bca576000841415614b035786600160008a60ff1660ff168152602001908152602001600020600701819055506000600160008a60ff1660ff1681526020019081526020016000206003016000898152602001908152602001600020600001819055506000600160008a60ff1660ff168152602001908152602001600020600301600089815260200190815260200160002060010181905550614ba4565b86600160008a60ff1660ff16815260200190815260200160002060030160008581526020019081526020016000206000018190555082600160008a60ff1660ff1681526020019081526020016000206003016000898152602001908152602001600020600101819055506000600160008a60ff1660ff1681526020019081526020016000206003016000898152602001908152602001600020600001819055505b86600160008a60ff1660ff16815260200190815260200160002060080181905550614e85565b86841115614c985786600160008a60ff1660ff16815260200190815260200160002060030160008681526020019081526020016000206001018190555083600160008a60ff1660ff1681526020019081526020016000206003016000898152602001908152602001600020600001819055506000600160008a60ff1660ff16815260200190815260200160002060030160008981526020019081526020016000206001018190555086600160008a60ff1660ff16815260200190815260200160002060070181905550614e84565b600160008960ff1660ff168152602001908152602001600020600701549150600090505b600082118015614cca575080155b15614e83578187118015614d0d575086600160008a60ff1660ff168152602001908152602001600020600301600084815260200190815260200160002060000154115b15614e4b5781600160008a60ff1660ff168152602001908152602001600020600301600089815260200190815260200160002060010181905550600160008960ff1660ff168152602001908152602001600020600301600083815260200190815260200160002060000154600160008a60ff1660ff16815260200190815260200160002060030160008981526020019081526020016000206000018190555086600160008a60ff1660ff1681526020019081526020016000206003016000600160008c60ff1660ff16815260200190815260200160002060030160008681526020019081526020016000206000015481526020019081526020016000206001018190555086600160008a60ff1660ff168152602001908152602001600020600301600084815260200190815260200160002060000181905550600190505b600160008960ff1660ff1681526020019081526020016000206003016000838152602001908152602001600020600001549150614cbc565b5b5b5b5050505050505050565b600080600190505b600260009054906101000a900460ff1660ff168160ff16111515614ef557614edb600160008360ff1660ff16815260200190815260200160002060010184614f00565b15614ee857809150614efa565b8080600101915050614e98565b600091505b50919050565b600080614f0b61511d565b6000859250849150815183805460018160011615610100020316600290049050141515614f3b5760009350615080565b600090505b8280546001816001161561010002031660029004905081101561507b578181815181101515614f6b57fe5b9060200101517f010000000000000000000000000000000000000000000000000000000000000090047f0100000000000000000000000000000000000000000000000000000000000000027effffffffffffffffffffffffffffffffffffffffffffffffffffffffffffff191683828154600181600116156101000203166002900481101515614ff757fe5b8154600116156150165790600052602060002090602091828204019190065b9054901a7f0100000000000000000000000000000000000000000000000000000000000000027effffffffffffffffffffffffffffffffffffffffffffffffffffffffffffff191614151561506e5760009350615080565b8080600101915050614f40565b600193505b50505092915050565b602060405190810160405280600081525090565b828054600181600116156101000203166002900490600052602060002090601f016020900481019282601f106150de57805160ff191683800117855561510c565b8280016001018555821561510c579182015b8281111561510b5782518255916020019190600101906150f0565b5b5090506151199190615131565b5090565b602060405190810160405280600081525090565b61515391905b8082111561514f576000816000905550600101615137565b5090565b905600a165627a7a72305820d1cf99e13b7abda78f0acefd508d8f2aefe91ed91d34f443e9b96dcef83d9a5c0029",
  "source": "pragma solidity ^0.4.18;\n\nimport './owned.sol';\nimport './FixedSupplyToken.sol';\n\ncontract Exchange is owned {\n\n    ///////////////////////\n    // GENERAL STRUCTURE //\n    ///////////////////////\n\n    struct Offer {\n\n        // An offer made by a person.\n        uint amount;\n        address who;\n\n    }\n\n    struct OrderBook {\n\n        // This is a linked list, ordered by price. Each orderbook points\n        // to the higher and lower items in the list\n\n        uint higherPrice;\n        uint lowerPrice;\n\n        // The offers for this orderbook's price\n        mapping (uint => Offer) offers;\n\n        uint offers_key;\n        uint offers_length;\n\n    }\n\n    struct Token {\n\n        address tokenContract;\n\n        string symbolName;\n\n        // Key is the token price\n        mapping (uint => OrderBook) buyBook;\n        mapping (uint => OrderBook) sellBook;\n\n        // highest buy price\n        uint curBuyPrice;\n        // Lowest buy price.\n        uint lowestBuyPrice;\n        // Number of different buy prices\n        uint amountBuyPrices;\n\n        // lowest sell price\n        uint curSellPrice;\n        // Highest sell price\n        uint highestSellPrice;\n        // Number of different sell prices\n        uint amountSellPrices;\n\n    }\n\n    // supporting a max of 255 tokens\n    // key is the token id\n    mapping (uint8 => Token) tokens;\n    // used to keep track of the number of registered tokens\n    uint8 symbolNameIndex;\n\n    //////////////\n    // BALANCES //\n    //////////////\n    mapping (address => mapping (uint8 => uint)) tokenBalancesForAddresses;\n\n    mapping (address => uint) balanceEthForAddress;\n\n    /////////////\n    // EVENTS  //\n    /////////////\n\n    // Events for deposit/withdrawal\n    event DepositForTokenReceived(address indexed _from, uint indexed _symbolIndex, uint _amount, uint _timestamp);\n    event WithdrawalToken(address indexed _to, uint indexed _symbolIndex, uint _amount, uint _timestamp);\n    event DepositForEthReceived(address indexed _from, uint _amount, uint _timestamp);\n    event WithdrawalEth(address indexed _to, uint _amount, uint _timestamp);\n\n    // Events for orders\n    event LimitSellOrderCreated(uint indexed _symbolIndex, address indexed _who, uint _amountTokens, uint _priceInWei, uint _orderKey);\n    event SellOrderFulfilled(uint indexed _symbolIndex, uint _amount, uint _priceInWei, uint _orderKey);\n    event SellOrderCancelled(uint indexed _symbolIndex, uint _priceInWei, uint _orderKey);\n    event LimitBuyOrderCreated(uint indexed _symbolIndex, address indexed _who, uint _amountTokens, uint _priceInWei, uint _orderKey);\n    event BuyOrderFulfilled(uint indexed _symbolIndex, uint _amount, uint _priceInWei, uint _orderKey);\n    event BuyOrderCancelled(uint indexed _symbolIndex, uint _priceInWei, uint _orderKey);\n\n    // Events for management\n    event TokenAddedToSystem(uint _symbolIndex, string _token, uint _timestamp);\n\n    // Debug Event\n    event Debug(string msg, uint variable);\n\n    ////////////////////////////////\n    // DEPOSIT AND WITHDRAW ETHER //\n    ////////////////////////////////\n\n    function depositEther() public payable {\n        // Need to prevent uint256 overflow (restarting number from 0)\n        require(balanceEthForAddress[msg.sender] + msg.value >= balanceEthForAddress[msg.sender]);\n        balanceEthForAddress[msg.sender] += msg.value;\n\n        DepositForEthReceived(msg.sender, msg.value, now);\n    }\n\n    function withdrawEther(uint amountInWei) public {\n        // Check that the user has sufficient balance\n        require(balanceEthForAddress[msg.sender] - msg.value >= 0);\n        // Check that the uint256 doesn't underflow (restart from really big number)\n        require(balanceEthForAddress[msg.sender] - msg.value <= balanceEthForAddress[msg.sender]);\n        balanceEthForAddress[msg.sender] -= amountInWei;\n        msg.sender.transfer(amountInWei);\n\n        WithdrawalEth(msg.sender, amountInWei, now);\n    }\n\n    function getEthBalanceInWei() public constant returns (uint) {\n        return balanceEthForAddress[msg.sender];\n    }\n\n    //////////////////////\n    // TOKEN MANAGEMENT //\n    //////////////////////\n\n    function addToken(string symbolName, address erc20TokenAddress) public onlyowner {\n        require (!hasToken(symbolName));\n        symbolNameIndex++;\n        tokens[symbolNameIndex].symbolName = symbolName;\n        tokens[symbolNameIndex].tokenContract = erc20TokenAddress;\n\n        TokenAddedToSystem(symbolNameIndex, symbolName, now);\n    }\n\n    function hasToken(string symbolName) public constant returns (bool) {\n        uint8 index = getSymbolIndex(symbolName);\n        if (index == 0) {\n            return false;\n        }\n        return true;\n    }\n\n    function getSymbolIndex(string symbolName) internal returns (uint8) {\n        for (uint8 i=1; i<=symbolNameIndex; i++) {\n            if (stringsEqual(tokens[i].symbolName, symbolName)) {\n                return i;\n            }\n        }\n        return 0;\n    }\n\n    function getSymbolIndexOrThrow(string symbolName) returns (uint8) {\n        uint8 index = getSymbolIndex(symbolName);\n        require (index > 0);\n        return index;\n    }\n\n    ////////////////////////////////\n    // STRING COMPARISON FUNCTION //\n    ////////////////////////////////\n    function stringsEqual(string storage _a, string memory _b) internal returns (bool) {\n        bytes storage a = bytes(_a);\n        bytes memory b = bytes(_b);\n        if (a.length != b.length)\n        return false;\n        // @todo unroll this loop\n        for (uint i=0; i<a.length; i++)\n        if (a[i] != b[i])\n        return false;\n        return true;\n    }\n\n\n    /////////////////////////////////\n    // DEPOSIT AND WITHDRAWL TOKEN //\n    /////////////////////////////////\n\n    function depositToken(string symbolName, uint amount) public {\n\n        // Make sure that the amount is actually an amount\n        assert(amount > 0);\n\n        uint8 symbolIndex = getSymbolIndexOrThrow(symbolName);\n\n        // Check that the symbol token contract actually exists\n        require(tokens[symbolIndex].tokenContract != address(0));\n\n        // Get the token contract instance\n        ERC20Interface token = ERC20Interface(tokens[symbolIndex].tokenContract);\n\n        // Make sure the transaction with the token contract goes through\n        require(token.transferFrom(msg.sender, address(this), amount) == true);\n\n        // Make sure that we don't overflow the uint256\n        require(tokenBalancesForAddresses[msg.sender][symbolIndex] + amount >= tokenBalancesForAddresses[msg.sender][symbolIndex]);\n        // Update the token balance\n        tokenBalancesForAddresses[msg.sender][symbolIndex] += amount;\n\n        DepositForTokenReceived(msg.sender, symbolNameIndex, amount, now);\n\n    }\n\n    function withdrawToken(string symbolName, uint amount) public {\n\n        uint8 symbolIndex = getSymbolIndex(symbolName);\n\n        // Check that the symbol token contract actually exists\n        require(tokens[symbolIndex].tokenContract != address(0));\n\n        // Check that the user has sufficient token balance\n        require(tokenBalancesForAddresses[msg.sender][symbolIndex] >= amount);\n        // Check that the uint256 doesn't underflow and become a giant number (feel like this isn't necessary)\n        require(tokenBalancesForAddresses[msg.sender][symbolIndex] - amount <= tokenBalancesForAddresses[msg.sender][symbolIndex]);\n\n        // Get the token contract instance\n        ERC20Interface token = ERC20Interface(tokens[symbolIndex].tokenContract);\n\n        tokenBalancesForAddresses[msg.sender][symbolIndex] -= amount;\n\n        // Make sure that you get the finished transfer\n        // Note that this is sending the tokens from the contract's address.\n        require(token.transfer(msg.sender, amount) == true);\n\n        WithdrawalToken(msg.sender, symbolNameIndex, amount, now);\n\n    }\n\n    function getBalance(string symbolName) public constant returns (uint) {\n\n        uint8 symbolIndex = getSymbolIndexOrThrow(symbolName);\n\n        return tokenBalancesForAddresses[msg.sender][symbolIndex];\n\n    }\n\n    /////////////////////////////\n    // ORDER BOOK - BID ORDERS //\n    /////////////////////////////\n\n    function getBuyOrderBook(string symbolName) public constant returns (uint[], uint[]) {\n\n        uint8 tokenNameIndex = getSymbolIndexOrThrow(symbolName);\n        // We initialize static sized arrays for the prices and volumes, with size amountBuyPrices which\n        // we keep track of\n        uint[] memory arrPricesBuy = new uint[](tokens[tokenNameIndex].amountBuyPrices);\n        uint[] memory arrVolumesBuy = new uint[](tokens[tokenNameIndex].amountBuyPrices);\n\n        uint whilePrice = tokens[tokenNameIndex].lowestBuyPrice;\n\n        uint counter = 0;\n        // Check that there is at least one orderBook available at any price\n        if (tokens[tokenNameIndex].curBuyPrice > 0) {\n\n//            if (whilePrice == 0) {\n//\n//                // Find the lowest price\n//                uint counter1 = 0;\n//                while (counter1 <= tokens[tokenNameIndex].curBuyPrice) {\n//                    if (tokens[tokenNameIndex].buyBook[counter1].offers_key > 0) {\n//                        whilePrice = counter1;\n//                    }\n//                    counter1 += 1000000000000000;\n//                }\n//\n//            }\n\n            while (whilePrice <= tokens[tokenNameIndex].curBuyPrice) {\n\n                // Add the price to our prices array\n                arrPricesBuy[counter] = whilePrice;\n\n                uint volumeAtPrice = 0;\n                uint offers_key = 0;\n\n                offers_key = tokens[tokenNameIndex].buyBook[whilePrice].offers_key;\n                while (offers_key <= tokens[tokenNameIndex].buyBook[whilePrice].offers_length) {\n                    // Get the amount available from the specific offer\n                    volumeAtPrice += tokens[tokenNameIndex].buyBook[whilePrice].offers[offers_key].amount;\n                    offers_key++;\n                }\n\n                arrVolumesBuy[counter] = volumeAtPrice;\n\n                // Set the next whilePrice\n                // Because the logic in addBuyOffer() is to set the highest buy offer's higherprice to it's own price\n                if (whilePrice == tokens[tokenNameIndex].curBuyPrice || whilePrice == 0) {\n                    break;\n                } else {\n                    whilePrice = tokens[tokenNameIndex].buyBook[whilePrice].higherPrice;\n                }\n                counter++;\n\n            }\n        }\n\n        return (arrPricesBuy, arrVolumesBuy);\n\n    }\n\n    /////////////////////////////\n    // ORDER BOOK - ASK ORDERS //\n    /////////////////////////////\n\n    function getSellOrderBook(string symbolName) public constant returns (uint[], uint[]) {\n\n//        Debug(\"Offers length\", tokens[tokenNameIndex].sellBook[whilePrice].offers_length);\n//        Debug(\"Offers key\", tokens[tokenNameIndex].sellBook[whilePrice].offers_key);\n\n        uint8 tokenNameIndex = getSymbolIndexOrThrow(symbolName);\n        // Initialize the static arrays\n        uint[] memory arrPricesSell = new uint[](tokens[tokenNameIndex].amountSellPrices);\n        uint[] memory arrVolumesSell = new uint[](tokens[tokenNameIndex].amountSellPrices);\n\n        uint whilePrice = tokens[tokenNameIndex].highestSellPrice;\n        uint counter = 0;\n\n        // Check that there is at least one orderBook available for this token\n        if (tokens[tokenNameIndex].curSellPrice > 0) {\n            while(whilePrice >= tokens[tokenNameIndex].curSellPrice) {\n\n                // Add the price to our prices array\n                arrPricesSell[counter] = whilePrice;\n\n                uint volumeAtPrice = 0;\n                uint offers_key;\n\n//                Debug(\"Offers length\", tokens[tokenNameIndex].sellBook[whilePrice].offers_length);\n//                Debug(\"Offers key\", tokens[tokenNameIndex].sellBook[whilePrice].offers_key);\n\n                offers_key = tokens[tokenNameIndex].sellBook[whilePrice].offers_key;\n                while(offers_key <= tokens[tokenNameIndex].sellBook[whilePrice].offers_length) {\n                    // Get the amount available from the specific order\n                    volumeAtPrice += tokens[tokenNameIndex].sellBook[whilePrice].offers[offers_key].amount;\n                    offers_key++;\n                }\n\n                arrVolumesSell[counter] = volumeAtPrice;\n\n                // Set the next whilePrice\n                // Because the logic in addSellOffer() is to set the highest sell offer as 0\n                if (whilePrice == 0) {\n                    break;\n                } else {\n                    whilePrice = tokens[tokenNameIndex].sellBook[whilePrice].lowerPrice;\n                }\n                counter++;\n\n            }\n        }\n\n        return (arrPricesSell, arrVolumesSell);\n\n    }\n\n    ///////////////////////////\n    // NEW ORDER - BID ORDER //\n    ///////////////////////////\n\n    function buyToken(string symbolName, uint priceInWei, uint amount) public {\n\n        uint8 tokenNameIndex = getSymbolIndexOrThrow(symbolName);\n        uint total_amount_ether_necessary = 0;\n        uint total_amount_ether_available = 0;\n\n        // Check if we have enough ether to make this transaction\n        total_amount_ether_necessary = amount*priceInWei;\n\n        // Overflow check\n        require(total_amount_ether_necessary >= amount);\n        require(total_amount_ether_necessary >= priceInWei);\n        require(balanceEthForAddress[msg.sender] >= total_amount_ether_necessary);\n        require(balanceEthForAddress[msg.sender] - total_amount_ether_necessary >= 0);\n\n        // First deduct the amount of ether from our balance\n        balanceEthForAddress[msg.sender] -= total_amount_ether_necessary;\n\n        // If there hasn't been any sell offers or the current sell price is larger than the buyer wants to pay\n        if (tokens[tokenNameIndex].amountSellPrices == 0 || tokens[tokenNameIndex].curSellPrice > priceInWei) {\n\n            // limit order: we don't have enough offers to fulfill the amount\n\n            // add the order to the orderBook\n            addBuyOffer(tokenNameIndex, priceInWei, amount, msg.sender);\n\n            // and emit the event\n            LimitBuyOrderCreated(tokenNameIndex, msg.sender, amount, priceInWei, tokens[tokenNameIndex].buyBook[priceInWei].offers_length);\n        }\n\n        else {\n\n            // market order: current sell price is smaller or equal to buy price!\n\n            // find the lowest sell price that is lower than the buy price\n\n            // Start with the lowest sell price.\n            total_amount_ether_available = 0;\n            uint whilePrice = tokens[tokenNameIndex].curSellPrice;\n            uint amountNecessary = amount;\n            uint offers_key;\n\n            // Cycle through all the prices, starting with the lowest one\n            while (whilePrice <= priceInWei && amountNecessary > 0 && tokens[tokenNameIndex].curSellPrice != 0) {\n                // The offers key is updated with the lowest available index of funds (since funds are sold in order for each price)\n                offers_key = tokens[tokenNameIndex].sellBook[whilePrice].offers_key;\n                // keep looping as long as there are more offers and we need more tokens\n                while (offers_key <= tokens[tokenNameIndex].sellBook[whilePrice].offers_length && amountNecessary > 0) {\n                    uint volumeAtPriceFromAddress = tokens[tokenNameIndex].sellBook[whilePrice].offers[offers_key].amount;\n\n                    // We have two possibilities here:\n                    // 1) We buy everything this offer has to offer and need to move on to the next order\n                    // 2) We buy some of the tokens this offer has and fulfill our order\n\n                    // We can buy everything from this order\n                    if (volumeAtPriceFromAddress <= amountNecessary) {\n                        total_amount_ether_available = volumeAtPriceFromAddress * whilePrice;\n\n                        // Make sure the person we're buying from actually has sufficient tokens\n                        require(tokenBalancesForAddresses[tokens[tokenNameIndex].sellBook[whilePrice].offers[offers_key].who][tokenNameIndex] >= volumeAtPriceFromAddress);\n\n                        // Make sure that the buyer can actually purchase these tokens\n                        require(balanceEthForAddress[msg.sender] - total_amount_ether_available >= 0);\n                        // overflow check\n                        require(balanceEthForAddress[msg.sender] - total_amount_ether_available <= balanceEthForAddress[msg.sender]);\n                        // overflow check - that the seller can hold the ether we are giving him\n                        require(balanceEthForAddress[tokens[tokenNameIndex].sellBook[whilePrice].offers[offers_key].who] + total_amount_ether_available >= balanceEthForAddress[tokens[tokenNameIndex].sellBook[whilePrice].offers[offers_key].who]);\n\n                        // Transfer the tokens to the buyer no need since when we list the sale we already deduct it\n//                        tokenBalancesForAddresses[tokens[tokenNameIndex].sellBook[whilePrice].offers[offers_key].who][tokenNameIndex] -= (volumeAtPriceFromAddress + 1);\n                        // Take the ether away from the buyer\n                        balanceEthForAddress[msg.sender] -= total_amount_ether_available;\n                        // Send the ether to the seller\n                        balanceEthForAddress[tokens[tokenNameIndex].sellBook[whilePrice].offers[offers_key].who] += total_amount_ether_available;\n                        // Transfer the tokens to the buyer\n                        tokenBalancesForAddresses[msg.sender][tokenNameIndex] += volumeAtPriceFromAddress;\n\n                        // Clear the sell book volume\n                        tokens[tokenNameIndex].sellBook[whilePrice].offers[offers_key].amount = 0;\n                        // Update the offer key index\n                        tokens[tokenNameIndex].sellBook[whilePrice].offers_key++;\n\n                        amountNecessary -= volumeAtPriceFromAddress;\n\n                        if (amountNecessary == 0) {\n                            BuyOrderFulfilled(tokenNameIndex, volumeAtPriceFromAddress, whilePrice, offers_key);\n                        }\n\n                    } else {\n\n                        // If this offer has more tokens than we want, we can just fulfill our order here\n                        require(tokens[tokenNameIndex].sellBook[whilePrice].offers[offers_key].amount > amountNecessary);\n                        // since amountNecessary is all we need now\n                        total_amount_ether_necessary = amountNecessary * whilePrice;\n\n                        // overflow check - the seller has the required tokens\n                        require(tokenBalancesForAddresses[tokens[tokenNameIndex].sellBook[whilePrice].offers[offers_key].who][tokenNameIndex] >= amountNecessary);\n                        // Subtract the tokens from the seller\n//                        tokenBalancesForAddresses[tokens[tokenNameIndex].sellBook[whilePrice].offers[offers_key].who][tokenNameIndex] -= amountNecessary;\n\n                        // overflow check - check that after we add the ether to the seller they still have positive balance\n                        require(balanceEthForAddress[tokens[tokenNameIndex].sellBook[whilePrice].offers[offers_key].who] + total_amount_ether_necessary >= balanceEthForAddress[tokens[tokenNameIndex].sellBook[whilePrice].offers[offers_key].who]);\n                        // overflow check - check that the buyer can hold the new tokens\n                        require(tokenBalancesForAddresses[msg.sender][tokenNameIndex] + amountNecessary >= tokenBalancesForAddresses[msg.sender][tokenNameIndex]);\n\n                        // reduce the number of tokens available in this listing\n                        tokens[tokenNameIndex].sellBook[whilePrice].offers[offers_key].amount -= amountNecessary;\n                        // Transfer the tokens to us\n                        tokenBalancesForAddresses[msg.sender][tokenNameIndex] += amountNecessary;\n                        // Take the ether from us\n                        balanceEthForAddress[msg.sender] -= total_amount_ether_necessary;\n                        // Transfer the ether to him\n                        balanceEthForAddress[tokens[tokenNameIndex].sellBook[whilePrice].offers[offers_key].who] += total_amount_ether_necessary;\n\n                        BuyOrderFulfilled(tokenNameIndex, amountNecessary, whilePrice, offers_key);\n\n                        // We have fulfilled our order\n                        amountNecessary = 0;\n\n                    }\n\n                    // If this was the last offer for that price, we have to move the curSellPrice higher.\n                    // We also have one less sell offer\n                    if (offers_key == tokens[tokenNameIndex].sellBook[whilePrice].offers_length &&\n                        tokens[tokenNameIndex].sellBook[whilePrice].offers[offers_key].amount == 0) {\n\n                        // One less sell price\n                        tokens[tokenNameIndex].amountSellPrices--;\n                        // Move on to the next sell price\n                        if (whilePrice == tokens[tokenNameIndex].sellBook[whilePrice].higherPrice || whilePrice == 0 || tokens[tokenNameIndex].amountSellPrices == 0) {\n                            // Reached the last price.\n                            tokens[tokenNameIndex].curSellPrice = 0;\n                            tokens[tokenNameIndex].highestSellPrice = 0;\n                        } else {\n                            tokens[tokenNameIndex].curSellPrice = tokens[tokenNameIndex].sellBook[whilePrice].higherPrice;\n                            // Set the next most expensive sell order's lower price to the current sell price\n                            tokens[tokenNameIndex].sellBook[tokens[tokenNameIndex].buyBook[whilePrice].higherPrice].lowerPrice = tokens[tokenNameIndex].curSellPrice;\n\n                        }\n\n                    }\n                    offers_key++;\n\n                }\n                // Update the whilePrice to the next lowest sell price.\n                whilePrice = tokens[tokenNameIndex].curSellPrice;\n\n            }\n\n            // If we still need to buy more, we make a listing\n            if (amountNecessary > 0) {\n                // Because amountNecessary will be subtracted when we call buyToken\n                balanceEthForAddress[msg.sender] += amountNecessary;\n                buyToken(symbolName, priceInWei, amountNecessary);\n            }\n\n        }\n\n    }\n\n    function addBuyOffer(uint8 tokenIndex, uint priceInWei, uint amount, address who) internal {\n\n        // because the offers are ordered in ascending order\n        tokens[tokenIndex].buyBook[priceInWei].offers_length++;\n        // Actually create the offer in the offer book\n        tokens[tokenIndex].buyBook[priceInWei].offers[tokens[tokenIndex].buyBook[priceInWei].offers_length] = Offer(amount, who);\n\n        // If this is the first offer to be added\n        if (tokens[tokenIndex].buyBook[priceInWei].offers[tokens[tokenIndex].buyBook[priceInWei].offers_length-1].amount == 0 && tokens[tokenIndex].buyBook[priceInWei].offers_length > 1) {\n            if (tokens[tokenIndex].lowestBuyPrice > priceInWei || tokens[tokenIndex].lowestBuyPrice == 0) {\n                tokens[tokenIndex].lowestBuyPrice = priceInWei;\n            }\n//            if (tokens[tokenIndex].lowestBuyPrice == 0 && tokens[tokenIndex].amountBuyPrices == 0) {\n//                tokens[tokenIndex].lowestBuyPrice = priceInWei;\n//            }\n            if (tokens[tokenIndex].curBuyPrice < priceInWei || tokens[tokenIndex].curSellPrice == 0) {\n                tokens[tokenIndex].curBuyPrice = priceInWei;\n            }\n            tokens[tokenIndex].amountBuyPrices++;\n        }\n\n        // Taking care of our linked list, and we only have to do something if this is the first offer at it's price point\n        // If it wasn't, then this was already taken care of last time.\n        if (tokens[tokenIndex].buyBook[priceInWei].offers_length == 1) {\n            // One more buy price available\n            tokens[tokenIndex].amountBuyPrices++;\n\n            // lowerPrice and higherPrice have to be set\n            uint curBuyPrice = tokens[tokenIndex].curBuyPrice;\n\n            uint lowestBuyPrice = tokens[tokenIndex].lowestBuyPrice;\n\n            // If offer price is lower than the current lowest buy offer\n            if (lowestBuyPrice == 0 || lowestBuyPrice > priceInWei) {\n                if (curBuyPrice == 0) {\n                    // There is no buy orders yet, and we insert the first one.\n                    tokens[tokenIndex].curBuyPrice = priceInWei;\n                    tokens[tokenIndex].buyBook[priceInWei].higherPrice = priceInWei;\n                    tokens[tokenIndex].buyBook[priceInWei].lowerPrice = 0;\n                } else {\n                    // If this order is the cheapest buy order\n                    tokens[tokenIndex].buyBook[lowestBuyPrice].lowerPrice = priceInWei;\n                    tokens[tokenIndex].buyBook[priceInWei].higherPrice = lowestBuyPrice;\n                    tokens[tokenIndex].buyBook[priceInWei].lowerPrice = 0;\n                }\n                tokens[tokenIndex].lowestBuyPrice = priceInWei;\n            }\n\n            // If offer price is bigger than the current largest buy offer\n            else if (curBuyPrice < priceInWei) {\n                // The offer to buy is the highest one, and we don't need to find the right spot\n                tokens[tokenIndex].buyBook[curBuyPrice].higherPrice = priceInWei;\n                tokens[tokenIndex].buyBook[priceInWei].higherPrice = priceInWei;\n                tokens[tokenIndex].buyBook[priceInWei].lowerPrice = curBuyPrice;\n                tokens[tokenIndex].curBuyPrice = priceInWei;\n            }\n\n            // If the offer price is somewhere in the middle\n            else {\n\n                uint buyPrice = tokens[tokenIndex].curBuyPrice;\n                bool found = false;\n                while (buyPrice > 0 && !found) {\n                    // Since we are going from highest buy price to the lowest, our price needs to be above one price's\n                    // higherPrice and lower than the last cycle's lowerPrice (set at the last line)\n                    if (buyPrice < priceInWei && tokens[tokenIndex].buyBook[buyPrice].higherPrice > priceInWei) {\n                        // set the new order book entry higher/lowerPrice first\n                        // This is because the current offer price is between the found price's lower and higher price.\n                        tokens[tokenIndex].buyBook[priceInWei].lowerPrice = buyPrice;\n                        tokens[tokenIndex].buyBook[priceInWei].higherPrice = tokens[tokenIndex].buyBook[buyPrice].higherPrice;\n\n                        // Set the higherPrice'd order-book entries lower price to the current price\n                        tokens[tokenIndex].buyBook[tokens[tokenIndex].buyBook[buyPrice].higherPrice].lowerPrice = priceInWei;\n                        // set the lowerPrice'd order-book entries higherPrice to the current price\n                        tokens[tokenIndex].buyBook[buyPrice].higherPrice = priceInWei;\n\n                        // Tell the loop to exit\n                        found = true;\n                    }\n                    // Set the next iteration's buy price to the lower price of the current buyBook\n                    buyPrice = tokens[tokenIndex].buyBook[buyPrice].lowerPrice;\n                }\n\n            }\n\n        }\n\n    }\n\n    ///////////////////////////\n    // NEW ORDER - ASK ORDER //\n    ///////////////////////////\n\n    function sellToken(string symbolName, uint priceInWei, uint amount) {\n\n        uint8 tokenNameIndex = getSymbolIndexOrThrow(symbolName);\n        uint total_amount_ether_necessary = 0;\n        uint total_amount_ether_available = 0;\n\n        require(tokenBalancesForAddresses[msg.sender][tokenNameIndex] - amount <= tokenBalancesForAddresses[msg.sender][tokenNameIndex]);\n        require(tokenBalancesForAddresses[msg.sender][tokenNameIndex] - amount >= 0);\n\n\n        // Only if we don't need to make a listing\n        tokenBalancesForAddresses[msg.sender][tokenNameIndex] -= amount;\n\n        // If there hasn't been any buy offers or the current buy offer is less than the sell price offered.\n        if (tokens[tokenNameIndex].amountBuyPrices == 0 || tokens[tokenNameIndex].curBuyPrice < priceInWei) {\n\n            // Add the order to the orderbook\n            addSellOrder(tokenNameIndex, priceInWei, amount, msg.sender);\n\n            // and emit the event offers length gets updated in addSellOrder()\n            LimitSellOrderCreated(tokenNameIndex, msg.sender, amount, priceInWei, tokens[tokenNameIndex].sellBook[priceInWei].offers_length);\n\n        } else {\n\n            // Actually subtract token balance\n\n            // market order: selling price is less than the buy price!\n\n            // 1st: find the \"highest buy price\" that is higher than the sell amount eg [buy: 60@500] [buy: 50@450] offer: [sell: 500@400]\n            // 2nd: sell all the volume for 500\n            // 3rd: well all the volume for 450\n            // 4th: create the sell token offer for 390 tokens at 400\n            // 5th: add ether to seller, add tokens to buyer\n\n            uint whilePrice = tokens[tokenNameIndex].curBuyPrice;\n            uint amountNecessary = amount;\n            uint offers_key;\n            while (whilePrice >= priceInWei && amountNecessary > 0) {//we start with the highest buy price.\n                offers_key = tokens[tokenNameIndex].buyBook[whilePrice].offers_key;\n                while (offers_key <= tokens[tokenNameIndex].buyBook[whilePrice].offers_length && amountNecessary > 0) {//and the first order (FIFO)\n                    uint volumeAtPriceFromAddress = tokens[tokenNameIndex].buyBook[whilePrice].offers[offers_key].amount;\n\n\n                    //Two choices from here:\n                    //1) one person offers not enough volume to fulfill the market order - we use it up completely and move on to the next person who offers the symbolName\n                    //2) else: we make use of parts of what a person is offering - lower his amount, fulfill out order.\n                    if (volumeAtPriceFromAddress <= amountNecessary) {\n                        total_amount_ether_available = volumeAtPriceFromAddress * whilePrice;\n\n\n                        //overflow check\n                        require(tokenBalancesForAddresses[msg.sender][tokenNameIndex] >= volumeAtPriceFromAddress);\n                        //actually subtract the amount of tokens to change it then\n//                        tokenBalancesForAddresses[msg.sender][tokenNameIndex] -= volumeAtPriceFromAddress;\n\n                        //overflow check\n                        require(tokenBalancesForAddresses[msg.sender][tokenNameIndex] - volumeAtPriceFromAddress >= 0);\n                        require(tokenBalancesForAddresses[tokens[tokenNameIndex].buyBook[whilePrice].offers[offers_key].who][tokenNameIndex] + volumeAtPriceFromAddress >= tokenBalancesForAddresses[tokens[tokenNameIndex].buyBook[whilePrice].offers[offers_key].who][tokenNameIndex]);\n                        require(balanceEthForAddress[msg.sender] + total_amount_ether_available >= balanceEthForAddress[msg.sender]);\n\n                        //this guy offers less or equal the volume that we ask for, so we use it up completely.\n                        tokenBalancesForAddresses[tokens[tokenNameIndex].buyBook[whilePrice].offers[offers_key].who][tokenNameIndex] += volumeAtPriceFromAddress;\n                        tokens[tokenNameIndex].buyBook[whilePrice].offers[offers_key].amount = 0;\n                        balanceEthForAddress[msg.sender] += total_amount_ether_available;\n                        tokens[tokenNameIndex].buyBook[whilePrice].offers_key++;\n\n                        amountNecessary -= volumeAtPriceFromAddress;\n\n                        if (amountNecessary == 0) {\n                            SellOrderFulfilled(tokenNameIndex, volumeAtPriceFromAddress, whilePrice, offers_key);\n                        }\n\n                    } else {\n                        require(volumeAtPriceFromAddress - amountNecessary > 0);\n                        //just for sanity\n                        total_amount_ether_necessary = amountNecessary * whilePrice;\n                        //we take the rest of the outstanding amount\n\n                        //overflow check\n                        require(tokenBalancesForAddresses[msg.sender][tokenNameIndex] >= amountNecessary);\n                        //actually subtract the amount of tokens to change it then\n//                        tokenBalancesForAddresses[msg.sender][tokenNameIndex] -= amountNecessary;\n\n                        //overflow check\n                        require(tokenBalancesForAddresses[msg.sender][tokenNameIndex] >= amountNecessary);\n                        require(balanceEthForAddress[msg.sender] + total_amount_ether_necessary >= balanceEthForAddress[msg.sender]);\n                        require(tokenBalancesForAddresses[tokens[tokenNameIndex].buyBook[whilePrice].offers[offers_key].who][tokenNameIndex] + amountNecessary >= tokenBalancesForAddresses[tokens[tokenNameIndex].buyBook[whilePrice].offers[offers_key].who][tokenNameIndex]);\n\n                        //this guy offers more than we ask for. We reduce his stack, add the eth to us and the symbolName to him.\n                        tokens[tokenNameIndex].buyBook[whilePrice].offers[offers_key].amount -= amountNecessary;\n                        balanceEthForAddress[msg.sender] += total_amount_ether_necessary;\n                        tokenBalancesForAddresses[tokens[tokenNameIndex].buyBook[whilePrice].offers[offers_key].who][tokenNameIndex] += amountNecessary;\n\n                        SellOrderFulfilled(tokenNameIndex, amountNecessary, whilePrice, offers_key);\n\n                        amountNecessary = 0;\n                        //we have fulfilled our order\n                    }\n\n                    //if it was the last offer for that price, we have to set the curBuyPrice now lower. Additionally we have one offer less...\n                    if (offers_key == tokens[tokenNameIndex].buyBook[whilePrice].offers_length &&\n                        tokens[tokenNameIndex].buyBook[whilePrice].offers[offers_key].amount == 0) {\n\n                        tokens[tokenNameIndex].amountBuyPrices--;\n                        //we have one price offer less here...\n                        //next whilePrice\n                        if (tokens[tokenNameIndex].buyBook[whilePrice].lowerPrice == 0 && tokens[tokenNameIndex].amountBuyPrices == 0) {\n                            tokens[tokenNameIndex].curBuyPrice = 0;\n                            tokens[tokenNameIndex].lowestBuyPrice = 0;\n                            //we have reached the last price\n                        } else {\n                            // Haven't yet reached the last price\n                            tokens[tokenNameIndex].curBuyPrice = tokens[tokenNameIndex].buyBook[whilePrice].lowerPrice;\n                            tokens[tokenNameIndex].buyBook[tokens[tokenNameIndex].sellBook[whilePrice].lowerPrice].higherPrice = tokens[tokenNameIndex].curBuyPrice;\n                        }\n                    }\n                    offers_key++;\n                }\n\n                //we set the curSellPrice again, since when the volume is used up for a lowest price the curSellPrice is set there...\n                whilePrice = tokens[tokenNameIndex].curBuyPrice;\n            }\n\n            if (amountNecessary > 0) {\n                // We do this because amountNecessary will be subtracted from the token Balance if we run sellToken\n                // again, since it is done at the beginning everytime.\n                tokenBalancesForAddresses[msg.sender][tokenNameIndex] += amountNecessary;\n                sellToken(symbolName, priceInWei, amountNecessary);\n                //add a limit order, we couldn't fulfill all the orders!\n            }\n\n        }\n\n    }\n\n    function addSellOrder(uint8 tokenIndex, uint priceInWei, uint amount, address who) internal {\n\n        // because the offers are ordered in ascending order\n        tokens[tokenIndex].sellBook[priceInWei].offers_length++;\n        // Actually create the offer in the offer book\n        tokens[tokenIndex].sellBook[priceInWei].offers[tokens[tokenIndex].sellBook[priceInWei].offers_length] = Offer(amount, who);\n\n        // If we're adding an offer to a price that we previously sold out of\n        if (tokens[tokenIndex].sellBook[priceInWei].offers[tokens[tokenIndex].sellBook[priceInWei].offers_length-1].amount == 0 && tokens[tokenIndex].sellBook[priceInWei].offers_length > 1) {\n            if (tokens[tokenIndex].highestSellPrice < priceInWei) {\n                tokens[tokenIndex].highestSellPrice = priceInWei;\n            }\n            if (tokens[tokenIndex].curSellPrice > priceInWei || tokens[tokenIndex].curSellPrice == 0) {\n                tokens[tokenIndex].curSellPrice = priceInWei;\n            }\n            tokens[tokenIndex].amountSellPrices++;\n        }\n\n\n        // Taking care of our linked list, and we have to do this only if it is the first offer to come in at\n        // this price, or else this would've been done already.\n        if (tokens[tokenIndex].sellBook[priceInWei].offers_length == 1) {\n            // One more sell price available\n            tokens[tokenIndex].amountSellPrices++;\n\n            // Get the current lowest sell price\n            uint curSellPrice = tokens[tokenIndex].curSellPrice;\n            // Get the highest sell price\n            uint highestSellPrice = tokens[tokenIndex].highestSellPrice;\n\n            // If the offer's sell price is higher than the current highest sell price\n            if (highestSellPrice == 0 || highestSellPrice < priceInWei) {\n                if (curSellPrice == 0) {\n                    // There are no sell orders yet, and we have to add the first one\n                    tokens[tokenIndex].curSellPrice = priceInWei;\n                    tokens[tokenIndex].sellBook[priceInWei].higherPrice = 0;\n                    tokens[tokenIndex].sellBook[priceInWei].lowerPrice = 0;\n                } else {\n                    // If this sell order is the most expensive sell order\n                    tokens[tokenIndex].sellBook[highestSellPrice].higherPrice = priceInWei;\n                    tokens[tokenIndex].sellBook[priceInWei].lowerPrice = highestSellPrice;\n                    tokens[tokenIndex].sellBook[priceInWei].higherPrice = 0;\n                }\n                // This offerBook is now the highest sell price.\n                tokens[tokenIndex].highestSellPrice = priceInWei;\n            }\n\n            // If the offer price is lower than the current lowest sell price\n            else if (curSellPrice > priceInWei) {\n                // The offer to sell is the cheapest one, and we don't need to find the right spot\n                tokens[tokenIndex].sellBook[curSellPrice].lowerPrice = priceInWei;\n                tokens[tokenIndex].sellBook[priceInWei].higherPrice = curSellPrice;\n                // Just set it to itself\n                tokens[tokenIndex].sellBook[priceInWei].lowerPrice = 0;\n                tokens[tokenIndex].curSellPrice = priceInWei;\n            }\n\n            // If the offer price is somewhere in the middle\n            else {\n\n                uint sellPrice = tokens[tokenIndex].curSellPrice;\n                bool found = false;\n                while (sellPrice > 0 && !found) {\n                    // Since we are going from lowest sell price to the highest, our sellPrice needs\n                    // to be higher than the sellBook's lower price and lower than the current sellBook's higher price\n                    if (priceInWei > sellPrice && tokens[tokenIndex].sellBook[sellPrice].higherPrice > priceInWei) {\n                        // Set the new order book entry higher/lower price\n                        tokens[tokenIndex].sellBook[priceInWei].lowerPrice = sellPrice;\n                        tokens[tokenIndex].sellBook[priceInWei].higherPrice = tokens[tokenIndex].sellBook[sellPrice].higherPrice;\n\n                        // Set the higherPriced order-book's lower price to the current price\n                        tokens[tokenIndex].sellBook[tokens[tokenIndex].sellBook[sellPrice].higherPrice].lowerPrice = priceInWei;\n                        // Set the lower priced order-book's higher price to the current price\n                        tokens[tokenIndex].sellBook[sellPrice].higherPrice = priceInWei;\n\n                        // Tell the loop to exit\n                        found = true;\n                    }\n\n                    // Set the next iteration's sell price ot the higher price of the current\n                    sellPrice = tokens[tokenIndex].sellBook[sellPrice].higherPrice;\n                }\n\n            }\n\n        }\n\n    }\n\n    //////////////////////////////\n    // CANCEL LIMIT ORDER LOGIC //\n    //////////////////////////////\n\n    function cancelOrder(string symbolName, bool isSellOrder, uint priceInWei, uint offerKey) {\n\n        uint8 symbolNameIndex = getSymbolIndexOrThrow(symbolName);\n\n        if (isSellOrder) {\n\n            // Make sure person who made the offer is the same person cancelling it\n            require(tokens[symbolNameIndex].sellBook[priceInWei].offers[offerKey].who == msg.sender);\n\n            uint tokensAmount = tokens[symbolNameIndex].sellBook[priceInWei].offers[offerKey].amount;\n            // Check for overflow\n            require(tokenBalancesForAddresses[msg.sender][symbolNameIndex] + tokensAmount >= tokenBalancesForAddresses[msg.sender][symbolNameIndex]);\n\n            // Return the tokens to the user's balance\n            tokenBalancesForAddresses[msg.sender][symbolNameIndex] += tokensAmount;\n            // Set the offer to zero\n            tokens[symbolNameIndex].sellBook[priceInWei].offers[offerKey].amount = 0;\n            SellOrderCancelled(symbolNameIndex, priceInWei, offerKey);\n\n        }\n\n        else {\n\n            require(tokens[symbolNameIndex].buyBook[priceInWei].offers[offerKey].who == msg.sender);\n\n            uint etherToRefund = tokens[symbolNameIndex].buyBook[priceInWei].offers[offerKey].amount * priceInWei;\n            require(balanceEthForAddress[msg.sender] + etherToRefund >= balanceEthForAddress[msg.sender]);\n\n            // Return the balance\n            balanceEthForAddress[msg.sender] += etherToRefund;\n            tokens[symbolNameIndex].buyBook[priceInWei].offers[offerKey].amount = 0;\n            BuyOrderCancelled(symbolNameIndex, priceInWei, offerKey);\n\n        }\n\n    }\n\n}",
  "sourcePath": "/Users/WilliamHuang/Developer/BlockChain/Udemy_masterclass/TokenExchange/contracts/Exchange.sol",
  "compiler": {
    "name": "solc",
    "version": "0.4.18+commit.9cf6e910.Emscripten.clang"
  },
  "schemaVersion": "1.0.1",
  "updatedAt": "2017-11-09T04:26:03.528Z"
}